{
  "contractName": "Doom",
  "abi": [
    {
      "inputs": [],
      "stateMutability": "nonpayable",
      "type": "constructor"
    },
    {
      "inputs": [],
      "name": "GetInputs",
      "outputs": [
        {
          "internalType": "enum Doom.Input[]",
          "name": "",
          "type": "uint8[]"
        }
      ],
      "stateMutability": "view",
      "type": "function",
      "constant": true
    },
    {
      "inputs": [],
      "name": "GetLevel",
      "outputs": [
        {
          "internalType": "uint256",
          "name": "",
          "type": "uint256"
        }
      ],
      "stateMutability": "view",
      "type": "function",
      "constant": true
    },
    {
      "inputs": [
        {
          "internalType": "enum Doom.Input",
          "name": "input",
          "type": "uint8"
        }
      ],
      "name": "Vote",
      "outputs": [],
      "stateMutability": "nonpayable",
      "type": "function"
    },
    {
      "inputs": [
        {
          "internalType": "enum Doom.LevelState",
          "name": "new_state",
          "type": "uint8"
        }
      ],
      "name": "UpdateState",
      "outputs": [],
      "stateMutability": "nonpayable",
      "type": "function"
    }
  ],
  "bytecode": "0x6080604052600160135534801561001557600080fd5b50336000806101000a81548173ffffffffffffffffffffffffffffffffffffffff021916908373ffffffffffffffffffffffffffffffffffffffff16021790555061075a806100656000396000f3fe608060405234801561001057600080fd5b506004361061004c5760003560e01c8063060a4e061461005157806312f4cbd91461006f5780631501476a1461008b5780635991019c146100a7575b600080fd5b6100596100c5565b6040516100669190610502565b60405180910390f35b6100896004803603810190610084919061054e565b610152565b005b6100a560048036038101906100a091906105a0565b610192565b005b6100af61037a565b6040516100bc91906105e6565b60405180910390f35b6060601280548060200260200160405190810160405280929190818152602001828054801561014857602002820191906000526020600020906000905b82829054906101000a900460ff16601081111561012257610121610408565b5b815260200190600101906020826000010492830192600103820291508084116101025790505b5050505050905090565b600181601081111561016757610166610408565b5b6011811061017857610177610601565b5b01600081548092919061018a9061065f565b919050555050565b60008054906101000a900473ffffffffffffffffffffffffffffffffffffffff1673ffffffffffffffffffffffffffffffffffffffff163373ffffffffffffffffffffffffffffffffffffffff1614610220576040517f08c379a000000000000000000000000000000000000000000000000000000000815260040161021790610704565b60405180910390fd5b6000805b601181101561027b576001816011811061024157610240610601565b5b01546001836011811061025757610256610601565b5b0154116102645780610266565b815b915080806102739061065f565b915050610224565b506001600061028a9190610384565b6000600281111561029e5761029d610408565b5b8260028111156102b1576102b0610408565b5b036103225760128160108111156102cb576102ca610408565b5b90806001815401808255809150506001900390600052602060002090602091828204019190069091909190916101000a81548160ff0219169083601081111561031757610316610408565b5b021790555050610377565b6001600281111561033657610335610408565b5b82600281111561034957610348610408565b5b0361036757601360008154809291906103619061065f565b91905055505b601260006103759190610397565b505b50565b6000601354905090565b50806011019061039491906103bf565b50565b50805460008255601f0160209004906000526020600020908101906103bc91906103bf565b50565b5b808211156103d85760008160009055506001016103c0565b5090565b600081519050919050565b600082825260208201905092915050565b6000819050602082019050919050565b7f4e487b7100000000000000000000000000000000000000000000000000000000600052602160045260246000fd5b6011811061044857610447610408565b5b50565b600081905061045982610437565b919050565b60006104698261044b565b9050919050565b6104798161045e565b82525050565b600061048b8383610470565b60208301905092915050565b6000602082019050919050565b60006104af826103dc565b6104b981856103e7565b93506104c4836103f8565b8060005b838110156104f55781516104dc888261047f565b97506104e783610497565b9250506001810190506104c8565b5085935050505092915050565b6000602082019050818103600083015261051c81846104a4565b905092915050565b600080fd5b6011811061053657600080fd5b50565b60008135905061054881610529565b92915050565b60006020828403121561056457610563610524565b5b600061057284828501610539565b91505092915050565b6003811061058857600080fd5b50565b60008135905061059a8161057b565b92915050565b6000602082840312156105b6576105b5610524565b5b60006105c48482850161058b565b91505092915050565b6000819050919050565b6105e0816105cd565b82525050565b60006020820190506105fb60008301846105d7565b92915050565b7f4e487b7100000000000000000000000000000000000000000000000000000000600052603260045260246000fd5b7f4e487b7100000000000000000000000000000000000000000000000000000000600052601160045260246000fd5b600061066a826105cd565b91507fffffffffffffffffffffffffffffffffffffffffffffffffffffffffffffffff820361069c5761069b610630565b5b600182019050919050565b600082825260208201905092915050565b7f4f5241434c45204f4e4c5920414c4c4f57454400000000000000000000000000600082015250565b60006106ee6013836106a7565b91506106f9826106b8565b602082019050919050565b6000602082019050818103600083015261071d816106e1565b905091905056fea26469706673582212209b22a8b2136f2458001e1cebc792bbb150bd02238a64d8fbcc4175c751ca643364736f6c63430008110033",
  "immutableReferences": {},
  "source": "// SPDX-License-Identifier: ANANAS\r\npragma solidity ^0.8.17;\r\n\r\ncontract Doom {\r\n    uint constant INPUT_COUNT = 17;\r\n\r\n    enum Input {\r\n        NONE,\r\n        MOVE_FORWARD,\r\n        MOVE_BACKWARD,\r\n        MOVE_LEFT,\r\n        MOVE_RIGHT,\r\n        TURN_LEFT,\r\n        TURN_RIGHT,\r\n        FIRE,\r\n        ACTIVATE,\r\n        WEAPON_0,\r\n        WEAPON_1,\r\n        WEAPON_2,\r\n        WEAPON_3,\r\n        WEAPON_4,\r\n        WEAPON_5,\r\n        WEAPON_6,\r\n        WEAPON_7\r\n    }\r\n\r\n    enum LevelState {\r\n        OK,\r\n        SUCCESS,\r\n        FAIL\r\n    }\r\n\r\n    modifier oracle_function () {\r\n        require (msg.sender == oracle, \"ORACLE ONLY ALLOWED\");\r\n        _;\r\n    }\r\n\r\n    address oracle;\r\n    uint[INPUT_COUNT] votes;\r\n    Input[] inputs;\r\n    uint level = 1;\r\n\r\n    constructor () {\r\n        oracle = msg.sender;\r\n    }\r\n\r\n    function GetInputs () public view returns (Input[] memory) {\r\n        return inputs;\r\n    }\r\n\r\n    function GetLevel () public view returns (uint) {\r\n        return level;\r\n    }\r\n\r\n    function Vote (Input input) public {\r\n        votes[uint(input)]++;\r\n    }\r\n\r\n    function UpdateState (LevelState new_state) public oracle_function {\r\n        uint largest_vote = 0;\r\n        for (uint i = 0; i < INPUT_COUNT; i++) {\r\n            largest_vote = votes[largest_vote] > votes[i] ? largest_vote : i;\r\n        }\r\n\r\n        delete votes;\r\n\r\n        if (new_state == LevelState.OK) {\r\n            inputs.push(Input(largest_vote));\r\n            return;\r\n        }\r\n\r\n        if (new_state == LevelState.SUCCESS) {\r\n            level++;\r\n        }\r\n\r\n        delete inputs;\r\n    }\r\n}",
  "sourcePath": "C:\\Users\\Poga\\Desktop\\skolas_lietas\\aukstskola\\blokkedes\\contracts\\doom.sol",
  "compiler": {
    "name": "solc",
    "version": "0.8.17+commit.8df45f5f.Emscripten.clang"
  },
  "schemaVersion": "3.4.11",
  "updatedAt": "2023-01-08T07:37:06.361Z",
  "networkType": "ethereum",
  "devdoc": {
    "kind": "dev",
    "methods": {},
    "version": 1
  },
  "userdoc": {
    "kind": "user",
    "methods": {},
    "version": 1
  }
}